{
  "contractName": "EightTrgramCore",
  "abi": [
    {
      "inputs": [],
      "stateMutability": "nonpayable",
      "type": "constructor"
    },
    {
      "anonymous": false,
      "inputs": [
        {
          "indexed": true,
          "internalType": "address",
          "name": "owner",
          "type": "address"
        },
        {
          "indexed": true,
          "internalType": "address",
          "name": "approved",
          "type": "address"
        },
        {
          "indexed": true,
          "internalType": "uint256",
          "name": "tokenId",
          "type": "uint256"
        }
      ],
      "name": "Approval",
      "type": "event"
    },
    {
      "anonymous": false,
      "inputs": [
        {
          "indexed": true,
          "internalType": "address",
          "name": "owner",
          "type": "address"
        },
        {
          "indexed": true,
          "internalType": "address",
          "name": "operator",
          "type": "address"
        },
        {
          "indexed": false,
          "internalType": "bool",
          "name": "approved",
          "type": "bool"
        }
      ],
      "name": "ApprovalForAll",
      "type": "event"
    },
    {
      "anonymous": false,
      "inputs": [
        {
          "indexed": true,
          "internalType": "address",
          "name": "from",
          "type": "address"
        },
        {
          "indexed": true,
          "internalType": "address",
          "name": "to",
          "type": "address"
        },
        {
          "indexed": true,
          "internalType": "uint256",
          "name": "tokenId",
          "type": "uint256"
        }
      ],
      "name": "Transfer",
      "type": "event"
    },
    {
      "inputs": [
        {
          "internalType": "address",
          "name": "to",
          "type": "address"
        },
        {
          "internalType": "uint256",
          "name": "tokenId",
          "type": "uint256"
        }
      ],
      "name": "approve",
      "outputs": [],
      "stateMutability": "nonpayable",
      "type": "function"
    },
    {
      "inputs": [
        {
          "internalType": "address",
          "name": "owner",
          "type": "address"
        }
      ],
      "name": "balanceOf",
      "outputs": [
        {
          "internalType": "uint256",
          "name": "",
          "type": "uint256"
        }
      ],
      "stateMutability": "view",
      "type": "function",
      "constant": true
    },
    {
      "inputs": [],
      "name": "counter",
      "outputs": [
        {
          "internalType": "uint256",
          "name": "_value",
          "type": "uint256"
        }
      ],
      "stateMutability": "view",
      "type": "function",
      "constant": true
    },
    {
      "inputs": [],
      "name": "deployer",
      "outputs": [
        {
          "internalType": "address",
          "name": "",
          "type": "address"
        }
      ],
      "stateMutability": "view",
      "type": "function",
      "constant": true
    },
    {
      "inputs": [
        {
          "internalType": "uint256",
          "name": "",
          "type": "uint256"
        }
      ],
      "name": "eigthTrigramNFTs",
      "outputs": [
        {
          "internalType": "string",
          "name": "upperTrigramGene",
          "type": "string"
        },
        {
          "internalType": "string",
          "name": "lowerTrigramGene",
          "type": "string"
        },
        {
          "internalType": "string",
          "name": "colorFrom",
          "type": "string"
        },
        {
          "internalType": "string",
          "name": "colorTo",
          "type": "string"
        },
        {
          "internalType": "string",
          "name": "zodiacName",
          "type": "string"
        },
        {
          "internalType": "uint256",
          "name": "fatherTokenId",
          "type": "uint256"
        },
        {
          "internalType": "uint256",
          "name": "motherTokenId",
          "type": "uint256"
        }
      ],
      "stateMutability": "view",
      "type": "function",
      "constant": true
    },
    {
      "inputs": [
        {
          "internalType": "uint256",
          "name": "tokenId",
          "type": "uint256"
        }
      ],
      "name": "getApproved",
      "outputs": [
        {
          "internalType": "address",
          "name": "",
          "type": "address"
        }
      ],
      "stateMutability": "view",
      "type": "function",
      "constant": true
    },
    {
      "inputs": [
        {
          "internalType": "address",
          "name": "owner",
          "type": "address"
        },
        {
          "internalType": "address",
          "name": "operator",
          "type": "address"
        }
      ],
      "name": "isApprovedForAll",
      "outputs": [
        {
          "internalType": "bool",
          "name": "",
          "type": "bool"
        }
      ],
      "stateMutability": "view",
      "type": "function",
      "constant": true
    },
    {
      "inputs": [
        {
          "internalType": "address",
          "name": "user",
          "type": "address"
        },
        {
          "internalType": "uint256",
          "name": "tokenId",
          "type": "uint256"
        }
      ],
      "name": "isApprovedOrOwner",
      "outputs": [
        {
          "internalType": "bool",
          "name": "",
          "type": "bool"
        }
      ],
      "stateMutability": "view",
      "type": "function",
      "constant": true
    },
    {
      "inputs": [
        {
          "internalType": "address",
          "name": "owner",
          "type": "address"
        },
        {
          "internalType": "string",
          "name": "_tokenUri",
          "type": "string"
        },
        {
          "internalType": "string",
          "name": "_upperTrigramGene",
          "type": "string"
        },
        {
          "internalType": "string",
          "name": "_lowerTrigramGene",
          "type": "string"
        },
        {
          "internalType": "string",
          "name": "_colorFrom",
          "type": "string"
        },
        {
          "internalType": "string",
          "name": "_colorTo",
          "type": "string"
        },
        {
          "internalType": "string",
          "name": "_zodiacName",
          "type": "string"
        }
      ],
      "name": "mintGene0",
      "outputs": [],
      "stateMutability": "nonpayable",
      "type": "function"
    },
    {
      "inputs": [],
      "name": "name",
      "outputs": [
        {
          "internalType": "string",
          "name": "",
          "type": "string"
        }
      ],
      "stateMutability": "view",
      "type": "function",
      "constant": true
    },
    {
      "inputs": [
        {
          "internalType": "uint256",
          "name": "tokenId",
          "type": "uint256"
        }
      ],
      "name": "ownerOf",
      "outputs": [
        {
          "internalType": "address",
          "name": "",
          "type": "address"
        }
      ],
      "stateMutability": "view",
      "type": "function",
      "constant": true
    },
    {
      "inputs": [
        {
          "internalType": "address",
          "name": "",
          "type": "address"
        },
        {
          "internalType": "uint256",
          "name": "",
          "type": "uint256"
        }
      ],
      "name": "ownersTokenIds",
      "outputs": [
        {
          "internalType": "uint256",
          "name": "",
          "type": "uint256"
        }
      ],
      "stateMutability": "view",
      "type": "function",
      "constant": true
    },
    {
      "inputs": [
        {
          "internalType": "address",
          "name": "from",
          "type": "address"
        },
        {
          "internalType": "address",
          "name": "to",
          "type": "address"
        },
        {
          "internalType": "uint256",
          "name": "tokenId",
          "type": "uint256"
        }
      ],
      "name": "safeTransferFrom",
      "outputs": [],
      "stateMutability": "nonpayable",
      "type": "function"
    },
    {
      "inputs": [
        {
          "internalType": "address",
          "name": "from",
          "type": "address"
        },
        {
          "internalType": "address",
          "name": "to",
          "type": "address"
        },
        {
          "internalType": "uint256",
          "name": "tokenId",
          "type": "uint256"
        },
        {
          "internalType": "bytes",
          "name": "data",
          "type": "bytes"
        }
      ],
      "name": "safeTransferFrom",
      "outputs": [],
      "stateMutability": "nonpayable",
      "type": "function"
    },
    {
      "inputs": [
        {
          "internalType": "address",
          "name": "operator",
          "type": "address"
        },
        {
          "internalType": "bool",
          "name": "approved",
          "type": "bool"
        }
      ],
      "name": "setApprovalForAll",
      "outputs": [],
      "stateMutability": "nonpayable",
      "type": "function"
    },
    {
      "inputs": [
        {
          "internalType": "bytes4",
          "name": "interfaceId",
          "type": "bytes4"
        }
      ],
      "name": "supportsInterface",
      "outputs": [
        {
          "internalType": "bool",
          "name": "",
          "type": "bool"
        }
      ],
      "stateMutability": "view",
      "type": "function",
      "constant": true
    },
    {
      "inputs": [],
      "name": "symbol",
      "outputs": [
        {
          "internalType": "string",
          "name": "",
          "type": "string"
        }
      ],
      "stateMutability": "view",
      "type": "function",
      "constant": true
    },
    {
      "inputs": [
        {
          "internalType": "uint256",
          "name": "",
          "type": "uint256"
        }
      ],
      "name": "tokenIdToOwnerIndex",
      "outputs": [
        {
          "internalType": "uint256",
          "name": "",
          "type": "uint256"
        }
      ],
      "stateMutability": "view",
      "type": "function",
      "constant": true
    },
    {
      "inputs": [
        {
          "internalType": "uint256",
          "name": "tokenId",
          "type": "uint256"
        }
      ],
      "name": "tokenURI",
      "outputs": [
        {
          "internalType": "string",
          "name": "",
          "type": "string"
        }
      ],
      "stateMutability": "view",
      "type": "function",
      "constant": true
    },
    {
      "inputs": [
        {
          "internalType": "address",
          "name": "from",
          "type": "address"
        },
        {
          "internalType": "address",
          "name": "to",
          "type": "address"
        },
        {
          "internalType": "uint256",
          "name": "tokenId",
          "type": "uint256"
        }
      ],
      "name": "transferFrom",
      "outputs": [],
      "stateMutability": "nonpayable",
      "type": "function"
    },
    {
      "inputs": [
        {
          "internalType": "address",
          "name": "_owner",
          "type": "address"
        },
        {
          "internalType": "uint256",
          "name": "_index",
          "type": "uint256"
        }
      ],
      "name": "getOwnerCollectionByIndex",
      "outputs": [
        {
          "internalType": "uint256",
          "name": "fatherTokenId",
          "type": "uint256"
        },
        {
          "internalType": "uint256",
          "name": "motherTokenId",
          "type": "uint256"
        },
        {
          "internalType": "string",
          "name": "tokenUri",
          "type": "string"
        },
        {
          "internalType": "string",
          "name": "upperTrigramGene",
          "type": "string"
        },
        {
          "internalType": "string",
          "name": "lowerTrigramGene",
          "type": "string"
        },
        {
          "internalType": "string",
          "name": "colorFrom",
          "type": "string"
        },
        {
          "internalType": "string",
          "name": "colorTo",
          "type": "string"
        },
        {
          "internalType": "string",
          "name": "zodiacName",
          "type": "string"
        },
        {
          "internalType": "uint256",
          "name": "tokenId",
          "type": "uint256"
        }
      ],
      "stateMutability": "view",
      "type": "function",
      "constant": true
    },
    {
      "inputs": [
        {
          "internalType": "uint256",
          "name": "_tokenId",
          "type": "uint256"
        }
      ],
      "name": "getByTokenId",
      "outputs": [
        {
          "internalType": "uint256",
          "name": "fatherTokenId",
          "type": "uint256"
        },
        {
          "internalType": "uint256",
          "name": "motherTokenId",
          "type": "uint256"
        },
        {
          "internalType": "string",
          "name": "tokenUri",
          "type": "string"
        },
        {
          "internalType": "string",
          "name": "upperTrigramGene",
          "type": "string"
        },
        {
          "internalType": "string",
          "name": "lowerTrigramGene",
          "type": "string"
        },
        {
          "internalType": "string",
          "name": "colorFrom",
          "type": "string"
        },
        {
          "internalType": "string",
          "name": "colorTo",
          "type": "string"
        },
        {
          "internalType": "string",
          "name": "zodiacName",
          "type": "string"
        },
        {
          "internalType": "uint256",
          "name": "tokenId",
          "type": "uint256"
        }
      ],
      "stateMutability": "view",
      "type": "function",
      "constant": true
    }
  ],
  "bytecode": "0x60806040523480156200001157600080fd5b506040518060400160405280601581526020017f45696768745472696772616d427265656461626c6500000000000000000000008152506040518060400160405280600381526020017f4554420000000000000000000000000000000000000000000000000000000000815250818181600090816200009191906200037d565b508060019081620000a391906200037d565b5050505050620000b933620000bf60201b60201c565b62000464565b80600960006101000a81548173ffffffffffffffffffffffffffffffffffffffff021916908373ffffffffffffffffffffffffffffffffffffffff16021790555050565b600081519050919050565b7f4e487b7100000000000000000000000000000000000000000000000000000000600052604160045260246000fd5b7f4e487b7100000000000000000000000000000000000000000000000000000000600052602260045260246000fd5b600060028204905060018216806200018557607f821691505b6020821081036200019b576200019a6200013d565b5b50919050565b60008190508160005260206000209050919050565b60006020601f8301049050919050565b600082821b905092915050565b600060088302620002057fffffffffffffffffffffffffffffffffffffffffffffffffffffffffffffffff82620001c6565b620002118683620001c6565b95508019841693508086168417925050509392505050565b6000819050919050565b6000819050919050565b60006200025e62000258620002528462000229565b62000233565b62000229565b9050919050565b6000819050919050565b6200027a836200023d565b62000292620002898262000265565b848454620001d3565b825550505050565b600090565b620002a96200029a565b620002b68184846200026f565b505050565b5b81811015620002de57620002d26000826200029f565b600181019050620002bc565b5050565b601f8211156200032d57620002f781620001a1565b6200030284620001b6565b8101602085101562000312578190505b6200032a6200032185620001b6565b830182620002bb565b50505b505050565b600082821c905092915050565b6000620003526000198460080262000332565b1980831691505092915050565b60006200036d83836200033f565b9150826002028217905092915050565b620003888262000103565b67ffffffffffffffff811115620003a457620003a36200010e565b5b620003b082546200016c565b620003bd828285620002e2565b600060209050601f831160018114620003f55760008415620003e0578287015190505b620003ec85826200035f565b8655506200045c565b601f1984166200040586620001a1565b60005b828110156200042f5784890151825560018201915060208501945060208101905062000408565b868310156200044f57848901516200044b601f8916826200033f565b8355505b6001600288020188555050505b505050505050565b613c1d80620004746000396000f3fe608060405234801561001057600080fd5b50600436106101425760003560e01c80636352211e116100b8578063b88d4fde1161007c578063b88d4fde146103bd578063c87b56dd146103d9578063d5f3948814610409578063e834f75f14610427578063e985e9c51461045d578063f1fa9f661461048d57610142565b80636352211e146102f357806370a08231146103235780637783adc61461035357806395d89b4114610383578063a22cb465146103a157610142565b806325622f651161010a57806325622f65146101fd57806342842e0e14610219578063430c208114610235578063504ac573146102655780635715c7c41461029d57806361bc221a146102d557610142565b806301ffc9a71461014757806306fdde0314610177578063081812fc14610195578063095ea7b3146101c557806323b872dd146101e1575b600080fd5b610161600480360381019061015c91906124b9565b6104bd565b60405161016e9190612501565b60405180910390f35b61017f61059f565b60405161018c91906125ac565b60405180910390f35b6101af60048036038101906101aa9190612604565b610631565b6040516101bc9190612672565b60405180910390f35b6101df60048036038101906101da91906126b9565b610677565b005b6101fb60048036038101906101f691906126f9565b61078e565b005b61021760048036038101906102129190612881565b6107ee565b005b610233600480360381019061022e91906126f9565b61080a565b005b61024f600480360381019061024a91906126b9565b61082a565b60405161025c9190612501565b60405180910390f35b61027f600480360381019061027a91906126b9565b61083e565b604051610294999897969594939291906129da565b60405180910390f35b6102b760048036038101906102b29190612604565b61094a565b6040516102cc999897969594939291906129da565b60405180910390f35b6102dd610da9565b6040516102ea9190612a91565b60405180910390f35b61030d60048036038101906103089190612604565b610db5565b60405161031a9190612672565b60405180910390f35b61033d60048036038101906103389190612aac565b610e66565b60405161034a9190612a91565b60405180910390f35b61036d600480360381019061036891906126b9565b610f1d565b60405161037a9190612a91565b60405180910390f35b61038b610f4e565b60405161039891906125ac565b60405180910390f35b6103bb60048036038101906103b69190612b05565b610fe0565b005b6103d760048036038101906103d29190612be6565b610ff6565b005b6103f360048036038101906103ee9190612604565b611058565b60405161040091906125ac565b60405180910390f35b61041161116a565b60405161041e9190612672565b60405180910390f35b610441600480360381019061043c9190612604565b611190565b6040516104549796959493929190612c69565b60405180910390f35b61047760048036038101906104729190612cfb565b61148a565b6040516104849190612501565b60405180910390f35b6104a760048036038101906104a29190612604565b61151e565b6040516104b49190612a91565b60405180910390f35b60007f80ac58cd000000000000000000000000000000000000000000000000000000007bffffffffffffffffffffffffffffffffffffffffffffffffffffffff1916827bffffffffffffffffffffffffffffffffffffffffffffffffffffffff1916148061058857507f5b5e139f000000000000000000000000000000000000000000000000000000007bffffffffffffffffffffffffffffffffffffffffffffffffffffffff1916827bffffffffffffffffffffffffffffffffffffffffffffffffffffffff1916145b80610598575061059782611536565b5b9050919050565b6060600080546105ae90612d6a565b80601f01602080910402602001604051908101604052809291908181526020018280546105da90612d6a565b80156106275780601f106105fc57610100808354040283529160200191610627565b820191906000526020600020905b81548152906001019060200180831161060a57829003601f168201915b5050505050905090565b600061063c826115a0565b6004600083815260200190815260200160002060009054906101000a900473ffffffffffffffffffffffffffffffffffffffff169050919050565b600061068282610db5565b90508073ffffffffffffffffffffffffffffffffffffffff168373ffffffffffffffffffffffffffffffffffffffff16036106f2576040517f08c379a00000000000000000000000000000000000000000000000000000000081526004016106e990612e0d565b60405180910390fd5b8073ffffffffffffffffffffffffffffffffffffffff166107116115eb565b73ffffffffffffffffffffffffffffffffffffffff161480610740575061073f8161073a6115eb565b61148a565b5b61077f576040517f08c379a000000000000000000000000000000000000000000000000000000000815260040161077690612e9f565b60405180910390fd5b61078983836115f3565b505050565b61079f6107996115eb565b826116ac565b6107de576040517f08c379a00000000000000000000000000000000000000000000000000000000081526004016107d590612f31565b60405180910390fd5b6107e9838383611741565b505050565b6108006000808888888888888f6119a7565b5050505050505050565b61082583838360405180602001604052806000815250610ff6565b505050565b600061083683836116ac565b905092915050565b600080606080606080606080600080600a60008d73ffffffffffffffffffffffffffffffffffffffff1673ffffffffffffffffffffffffffffffffffffffff1681526020019081526020016000208b8154811061089e5761089d612f51565b5b906000526020600020015490503073ffffffffffffffffffffffffffffffffffffffff16635715c7c4826040518263ffffffff1660e01b81526004016108e49190612a91565b600060405180830381865afa158015610901573d6000803e3d6000fd5b505050506040513d6000823e3d601f19601f8201168201806040525081019061092a9190613005565b995099509950995099509950995099509950509295985092959850929598565b600080606080606080606080600060088a8154811061096c5761096b612f51565b5b906000526020600020906007020160050154985060088a8154811061099457610993612f51565b5b90600052602060002090600702016006015497503073ffffffffffffffffffffffffffffffffffffffff1663c87b56dd8b6040518263ffffffff1660e01b81526004016109e19190612a91565b600060405180830381865afa1580156109fe573d6000803e3d6000fd5b505050506040513d6000823e3d601f19601f82011682018060405250810190610a279190613177565b965060088a81548110610a3d57610a3c612f51565b5b90600052602060002090600702016000018054610a5990612d6a565b80601f0160208091040260200160405190810160405280929190818152602001828054610a8590612d6a565b8015610ad25780601f10610aa757610100808354040283529160200191610ad2565b820191906000526020600020905b815481529060010190602001808311610ab557829003601f168201915b5050505050955060088a81548110610aed57610aec612f51565b5b90600052602060002090600702016001018054610b0990612d6a565b80601f0160208091040260200160405190810160405280929190818152602001828054610b3590612d6a565b8015610b825780601f10610b5757610100808354040283529160200191610b82565b820191906000526020600020905b815481529060010190602001808311610b6557829003601f168201915b5050505050945060088a81548110610b9d57610b9c612f51565b5b90600052602060002090600702016002018054610bb990612d6a565b80601f0160208091040260200160405190810160405280929190818152602001828054610be590612d6a565b8015610c325780601f10610c0757610100808354040283529160200191610c32565b820191906000526020600020905b815481529060010190602001808311610c1557829003601f168201915b5050505050935060088a81548110610c4d57610c4c612f51565b5b90600052602060002090600702016003018054610c6990612d6a565b80601f0160208091040260200160405190810160405280929190818152602001828054610c9590612d6a565b8015610ce25780601f10610cb757610100808354040283529160200191610ce2565b820191906000526020600020905b815481529060010190602001808311610cc557829003601f168201915b5050505050925060088a81548110610cfd57610cfc612f51565b5b90600052602060002090600702016004018054610d1990612d6a565b80601f0160208091040260200160405190810160405280929190818152602001828054610d4590612d6a565b8015610d925780601f10610d6757610100808354040283529160200191610d92565b820191906000526020600020905b815481529060010190602001808311610d7557829003601f168201915b505050505091508990509193959799909294969850565b60078060000154905081565b6000806002600084815260200190815260200160002060009054906101000a900473ffffffffffffffffffffffffffffffffffffffff169050600073ffffffffffffffffffffffffffffffffffffffff168173ffffffffffffffffffffffffffffffffffffffff1603610e5d576040517f08c379a0000000000000000000000000000000000000000000000000000000008152600401610e549061320c565b60405180910390fd5b80915050919050565b60008073ffffffffffffffffffffffffffffffffffffffff168273ffffffffffffffffffffffffffffffffffffffff1603610ed6576040517f08c379a0000000000000000000000000000000000000000000000000000000008152600401610ecd9061329e565b60405180910390fd5b600360008373ffffffffffffffffffffffffffffffffffffffff1673ffffffffffffffffffffffffffffffffffffffff168152602001908152602001600020549050919050565b600a6020528160005260406000208181548110610f3957600080fd5b90600052602060002001600091509150505481565b606060018054610f5d90612d6a565b80601f0160208091040260200160405190810160405280929190818152602001828054610f8990612d6a565b8015610fd65780601f10610fab57610100808354040283529160200191610fd6565b820191906000526020600020905b815481529060010190602001808311610fb957829003601f168201915b5050505050905090565b610ff2610feb6115eb565b8383611ad7565b5050565b6110076110016115eb565b836116ac565b611046576040517f08c379a000000000000000000000000000000000000000000000000000000000815260040161103d90612f31565b60405180910390fd5b61105284848484611c43565b50505050565b6060611063826115a0565b600060066000848152602001908152602001600020805461108390612d6a565b80601f01602080910402602001604051908101604052809291908181526020018280546110af90612d6a565b80156110fc5780601f106110d1576101008083540402835291602001916110fc565b820191906000526020600020905b8154815290600101906020018083116110df57829003601f168201915b50505050509050600061110d611c9f565b90506000815103611122578192505050611165565b60008251111561115757808260405160200161113f9291906132fa565b60405160208183030381529060405292505050611165565b61116084611cb6565b925050505b919050565b600960009054906101000a900473ffffffffffffffffffffffffffffffffffffffff1681565b600881815481106111a057600080fd5b90600052602060002090600702016000915090508060000180546111c390612d6a565b80601f01602080910402602001604051908101604052809291908181526020018280546111ef90612d6a565b801561123c5780601f106112115761010080835404028352916020019161123c565b820191906000526020600020905b81548152906001019060200180831161121f57829003601f168201915b50505050509080600101805461125190612d6a565b80601f016020809104026020016040519081016040528092919081815260200182805461127d90612d6a565b80156112ca5780601f1061129f576101008083540402835291602001916112ca565b820191906000526020600020905b8154815290600101906020018083116112ad57829003601f168201915b5050505050908060020180546112df90612d6a565b80601f016020809104026020016040519081016040528092919081815260200182805461130b90612d6a565b80156113585780601f1061132d57610100808354040283529160200191611358565b820191906000526020600020905b81548152906001019060200180831161133b57829003601f168201915b50505050509080600301805461136d90612d6a565b80601f016020809104026020016040519081016040528092919081815260200182805461139990612d6a565b80156113e65780601f106113bb576101008083540402835291602001916113e6565b820191906000526020600020905b8154815290600101906020018083116113c957829003601f168201915b5050505050908060040180546113fb90612d6a565b80601f016020809104026020016040519081016040528092919081815260200182805461142790612d6a565b80156114745780601f1061144957610100808354040283529160200191611474565b820191906000526020600020905b81548152906001019060200180831161145757829003601f168201915b5050505050908060050154908060060154905087565b6000600560008473ffffffffffffffffffffffffffffffffffffffff1673ffffffffffffffffffffffffffffffffffffffff16815260200190815260200160002060008373ffffffffffffffffffffffffffffffffffffffff1673ffffffffffffffffffffffffffffffffffffffff16815260200190815260200160002060009054906101000a900460ff16905092915050565b600b6020528060005260406000206000915090505481565b60007f01ffc9a7000000000000000000000000000000000000000000000000000000007bffffffffffffffffffffffffffffffffffffffffffffffffffffffff1916827bffffffffffffffffffffffffffffffffffffffffffffffffffffffff1916149050919050565b6115a981611d1e565b6115e8576040517f08c379a00000000000000000000000000000000000000000000000000000000081526004016115df9061320c565b60405180910390fd5b50565b600033905090565b816004600083815260200190815260200160002060006101000a81548173ffffffffffffffffffffffffffffffffffffffff021916908373ffffffffffffffffffffffffffffffffffffffff160217905550808273ffffffffffffffffffffffffffffffffffffffff1661166683610db5565b73ffffffffffffffffffffffffffffffffffffffff167f8c5be1e5ebec7d5bd14f71427d1e84f3dd0314c0f7b2291e5b200ac8c7c3b92560405160405180910390a45050565b6000806116b883610db5565b90508073ffffffffffffffffffffffffffffffffffffffff168473ffffffffffffffffffffffffffffffffffffffff1614806116fa57506116f9818561148a565b5b8061173857508373ffffffffffffffffffffffffffffffffffffffff1661172084610631565b73ffffffffffffffffffffffffffffffffffffffff16145b91505092915050565b8273ffffffffffffffffffffffffffffffffffffffff1661176182610db5565b73ffffffffffffffffffffffffffffffffffffffff16146117b7576040517f08c379a00000000000000000000000000000000000000000000000000000000081526004016117ae90613390565b60405180910390fd5b600073ffffffffffffffffffffffffffffffffffffffff168273ffffffffffffffffffffffffffffffffffffffff1603611826576040517f08c379a000000000000000000000000000000000000000000000000000000000815260040161181d90613422565b60405180910390fd5b611831838383611d8a565b61183c6000826115f3565b6001600360008573ffffffffffffffffffffffffffffffffffffffff1673ffffffffffffffffffffffffffffffffffffffff168152602001908152602001600020600082825461188c9190613471565b925050819055506001600360008473ffffffffffffffffffffffffffffffffffffffff1673ffffffffffffffffffffffffffffffffffffffff16815260200190815260200160002060008282546118e391906134a5565b92505081905550816002600083815260200190815260200160002060006101000a81548173ffffffffffffffffffffffffffffffffffffffff021916908373ffffffffffffffffffffffffffffffffffffffff160217905550808273ffffffffffffffffffffffffffffffffffffffff168473ffffffffffffffffffffffffffffffffffffffff167fddf252ad1be2c89b69c2b068fc378daa952ba7f163c4a11628f55a4df523b3ef60405160405180910390a46119a2838383611d8f565b505050565b6000806119b46007611d94565b905060006040518060e001604052808a81526020018981526020018881526020018781526020018681526020018d81526020018c81525090506119f78483611da2565b611a01828b611f7b565b611a0b8483611fe8565b60088190806001815401808255809150506001900390600052602060002090600702016000909190919091506000820151816000019081611a4c9190613685565b506020820151816001019081611a629190613685565b506040820151816002019081611a789190613685565b506060820151816003019081611a8e9190613685565b506080820151816004019081611aa49190613685565b5060a0820151816005015560c082015181600601555050611ac5600761212d565b81925050509998505050505050505050565b8173ffffffffffffffffffffffffffffffffffffffff168373ffffffffffffffffffffffffffffffffffffffff1603611b45576040517f08c379a0000000000000000000000000000000000000000000000000000000008152600401611b3c906137a3565b60405180910390fd5b80600560008573ffffffffffffffffffffffffffffffffffffffff1673ffffffffffffffffffffffffffffffffffffffff16815260200190815260200160002060008473ffffffffffffffffffffffffffffffffffffffff1673ffffffffffffffffffffffffffffffffffffffff16815260200190815260200160002060006101000a81548160ff0219169083151502179055508173ffffffffffffffffffffffffffffffffffffffff168373ffffffffffffffffffffffffffffffffffffffff167f17307eab39ab6107e8899845ad3d59bd9653f200f220920489ca2b5937696c3183604051611c369190612501565b60405180910390a3505050565b611c4e848484611741565b611c5a84848484612143565b611c99576040517f08c379a0000000000000000000000000000000000000000000000000000000008152600401611c9090613835565b60405180910390fd5b50505050565b606060405180602001604052806000815250905090565b6060611cc1826115a0565b6000611ccb611c9f565b90506000815111611ceb5760405180602001604052806000815250611d16565b80611cf5846122ca565b604051602001611d069291906132fa565b6040516020818303038152906040525b915050919050565b60008073ffffffffffffffffffffffffffffffffffffffff166002600084815260200190815260200160002060009054906101000a900473ffffffffffffffffffffffffffffffffffffffff1673ffffffffffffffffffffffffffffffffffffffff1614159050919050565b505050565b505050565b600081600001549050919050565b600073ffffffffffffffffffffffffffffffffffffffff168273ffffffffffffffffffffffffffffffffffffffff1603611e11576040517f08c379a0000000000000000000000000000000000000000000000000000000008152600401611e08906138a1565b60405180910390fd5b611e1a81611d1e565b15611e5a576040517f08c379a0000000000000000000000000000000000000000000000000000000008152600401611e519061390d565b60405180910390fd5b611e6660008383611d8a565b6001600360008473ffffffffffffffffffffffffffffffffffffffff1673ffffffffffffffffffffffffffffffffffffffff1681526020019081526020016000206000828254611eb691906134a5565b92505081905550816002600083815260200190815260200160002060006101000a81548173ffffffffffffffffffffffffffffffffffffffff021916908373ffffffffffffffffffffffffffffffffffffffff160217905550808273ffffffffffffffffffffffffffffffffffffffff16600073ffffffffffffffffffffffffffffffffffffffff167fddf252ad1be2c89b69c2b068fc378daa952ba7f163c4a11628f55a4df523b3ef60405160405180910390a4611f7760008383611d8f565b5050565b611f8482611d1e565b611fc3576040517f08c379a0000000000000000000000000000000000000000000000000000000008152600401611fba9061399f565b60405180910390fd5b80600660008481526020019081526020016000209081611fe39190613685565b505050565b600073ffffffffffffffffffffffffffffffffffffffff168273ffffffffffffffffffffffffffffffffffffffff1603612057576040517f08c379a000000000000000000000000000000000000000000000000000000000815260040161204e90613a0b565b60405180910390fd5b600a60008373ffffffffffffffffffffffffffffffffffffffff1673ffffffffffffffffffffffffffffffffffffffff16815260200190815260200160002081908060018154018082558091505060019003906000526020600020016000909190919091505560006001600a60008573ffffffffffffffffffffffffffffffffffffffff1673ffffffffffffffffffffffffffffffffffffffff1681526020019081526020016000208054905061210e9190613471565b905080600b600084815260200190815260200160002081905550505050565b6001816000016000828254019250508190555050565b60006121648473ffffffffffffffffffffffffffffffffffffffff1661242a565b156122bd578373ffffffffffffffffffffffffffffffffffffffff1663150b7a0261218d6115eb565b8786866040518563ffffffff1660e01b81526004016121af9493929190613a80565b6020604051808303816000875af19250505080156121eb57506040513d601f19601f820116820180604052508101906121e89190613ae1565b60015b61226d573d806000811461221b576040519150601f19603f3d011682016040523d82523d6000602084013e612220565b606091505b506000815103612265576040517f08c379a000000000000000000000000000000000000000000000000000000000815260040161225c90613835565b60405180910390fd5b805181602001fd5b63150b7a0260e01b7bffffffffffffffffffffffffffffffffffffffffffffffffffffffff1916817bffffffffffffffffffffffffffffffffffffffffffffffffffffffff1916149150506122c2565b600190505b949350505050565b606060008203612311576040518060400160405280600181526020017f30000000000000000000000000000000000000000000000000000000000000008152509050612425565b600082905060005b6000821461234357808061232c90613b0e565b915050600a8261233c9190613b85565b9150612319565b60008167ffffffffffffffff81111561235f5761235e612756565b5b6040519080825280601f01601f1916602001820160405280156123915781602001600182028036833780820191505090505b5090505b6000851461241e576001826123aa9190613471565b9150600a856123b99190613bb6565b60306123c591906134a5565b60f81b8183815181106123db576123da612f51565b5b60200101907effffffffffffffffffffffffffffffffffffffffffffffffffffffffffffff1916908160001a905350600a856124179190613b85565b9450612395565b8093505050505b919050565b6000808273ffffffffffffffffffffffffffffffffffffffff163b119050919050565b6000604051905090565b600080fd5b600080fd5b60007fffffffff0000000000000000000000000000000000000000000000000000000082169050919050565b61249681612461565b81146124a157600080fd5b50565b6000813590506124b38161248d565b92915050565b6000602082840312156124cf576124ce612457565b5b60006124dd848285016124a4565b91505092915050565b60008115159050919050565b6124fb816124e6565b82525050565b600060208201905061251660008301846124f2565b92915050565b600081519050919050565b600082825260208201905092915050565b60005b8381101561255657808201518184015260208101905061253b565b60008484015250505050565b6000601f19601f8301169050919050565b600061257e8261251c565b6125888185612527565b9350612598818560208601612538565b6125a181612562565b840191505092915050565b600060208201905081810360008301526125c68184612573565b905092915050565b6000819050919050565b6125e1816125ce565b81146125ec57600080fd5b50565b6000813590506125fe816125d8565b92915050565b60006020828403121561261a57612619612457565b5b6000612628848285016125ef565b91505092915050565b600073ffffffffffffffffffffffffffffffffffffffff82169050919050565b600061265c82612631565b9050919050565b61266c81612651565b82525050565b60006020820190506126876000830184612663565b92915050565b61269681612651565b81146126a157600080fd5b50565b6000813590506126b38161268d565b92915050565b600080604083850312156126d0576126cf612457565b5b60006126de858286016126a4565b92505060206126ef858286016125ef565b9150509250929050565b60008060006060848603121561271257612711612457565b5b6000612720868287016126a4565b9350506020612731868287016126a4565b9250506040612742868287016125ef565b9150509250925092565b600080fd5b600080fd5b7f4e487b7100000000000000000000000000000000000000000000000000000000600052604160045260246000fd5b61278e82612562565b810181811067ffffffffffffffff821117156127ad576127ac612756565b5b80604052505050565b60006127c061244d565b90506127cc8282612785565b919050565b600067ffffffffffffffff8211156127ec576127eb612756565b5b6127f582612562565b9050602081019050919050565b82818337600083830152505050565b600061282461281f846127d1565b6127b6565b9050828152602081018484840111156128405761283f612751565b5b61284b848285612802565b509392505050565b600082601f8301126128685761286761274c565b5b8135612878848260208601612811565b91505092915050565b600080600080600080600060e0888a0312156128a05761289f612457565b5b60006128ae8a828b016126a4565b975050602088013567ffffffffffffffff8111156128cf576128ce61245c565b5b6128db8a828b01612853565b965050604088013567ffffffffffffffff8111156128fc576128fb61245c565b5b6129088a828b01612853565b955050606088013567ffffffffffffffff8111156129295761292861245c565b5b6129358a828b01612853565b945050608088013567ffffffffffffffff8111156129565761295561245c565b5b6129628a828b01612853565b93505060a088013567ffffffffffffffff8111156129835761298261245c565b5b61298f8a828b01612853565b92505060c088013567ffffffffffffffff8111156129b0576129af61245c565b5b6129bc8a828b01612853565b91505092959891949750929550565b6129d4816125ce565b82525050565b6000610120820190506129f0600083018c6129cb565b6129fd602083018b6129cb565b8181036040830152612a0f818a612573565b90508181036060830152612a238189612573565b90508181036080830152612a378188612573565b905081810360a0830152612a4b8187612573565b905081810360c0830152612a5f8186612573565b905081810360e0830152612a738185612573565b9050612a836101008301846129cb565b9a9950505050505050505050565b6000602082019050612aa660008301846129cb565b92915050565b600060208284031215612ac257612ac1612457565b5b6000612ad0848285016126a4565b91505092915050565b612ae2816124e6565b8114612aed57600080fd5b50565b600081359050612aff81612ad9565b92915050565b60008060408385031215612b1c57612b1b612457565b5b6000612b2a858286016126a4565b9250506020612b3b85828601612af0565b9150509250929050565b600067ffffffffffffffff821115612b6057612b5f612756565b5b612b6982612562565b9050602081019050919050565b6000612b89612b8484612b45565b6127b6565b905082815260208101848484011115612ba557612ba4612751565b5b612bb0848285612802565b509392505050565b600082601f830112612bcd57612bcc61274c565b5b8135612bdd848260208601612b76565b91505092915050565b60008060008060808587031215612c0057612bff612457565b5b6000612c0e878288016126a4565b9450506020612c1f878288016126a4565b9350506040612c30878288016125ef565b925050606085013567ffffffffffffffff811115612c5157612c5061245c565b5b612c5d87828801612bb8565b91505092959194509250565b600060e0820190508181036000830152612c83818a612573565b90508181036020830152612c978189612573565b90508181036040830152612cab8188612573565b90508181036060830152612cbf8187612573565b90508181036080830152612cd38186612573565b9050612ce260a08301856129cb565b612cef60c08301846129cb565b98975050505050505050565b60008060408385031215612d1257612d11612457565b5b6000612d20858286016126a4565b9250506020612d31858286016126a4565b9150509250929050565b7f4e487b7100000000000000000000000000000000000000000000000000000000600052602260045260246000fd5b60006002820490506001821680612d8257607f821691505b602082108103612d9557612d94612d3b565b5b50919050565b7f4552433732313a20617070726f76616c20746f2063757272656e74206f776e6560008201527f7200000000000000000000000000000000000000000000000000000000000000602082015250565b6000612df7602183612527565b9150612e0282612d9b565b604082019050919050565b60006020820190508181036000830152612e2681612dea565b9050919050565b7f4552433732313a20617070726f76652063616c6c6572206973206e6f7420746f60008201527f6b656e206f776e6572206e6f7220617070726f76656420666f7220616c6c0000602082015250565b6000612e89603e83612527565b9150612e9482612e2d565b604082019050919050565b60006020820190508181036000830152612eb881612e7c565b9050919050565b7f4552433732313a2063616c6c6572206973206e6f7420746f6b656e206f776e6560008201527f72206e6f7220617070726f766564000000000000000000000000000000000000602082015250565b6000612f1b602e83612527565b9150612f2682612ebf565b604082019050919050565b60006020820190508181036000830152612f4a81612f0e565b9050919050565b7f4e487b7100000000000000000000000000000000000000000000000000000000600052603260045260246000fd5b600081519050612f8f816125d8565b92915050565b6000612fa8612fa3846127d1565b6127b6565b905082815260208101848484011115612fc457612fc3612751565b5b612fcf848285612538565b509392505050565b600082601f830112612fec57612feb61274c565b5b8151612ffc848260208601612f95565b91505092915050565b60008060008060008060008060006101208a8c03121561302857613027612457565b5b60006130368c828d01612f80565b99505060206130478c828d01612f80565b98505060408a015167ffffffffffffffff8111156130685761306761245c565b5b6130748c828d01612fd7565b97505060608a015167ffffffffffffffff8111156130955761309461245c565b5b6130a18c828d01612fd7565b96505060808a015167ffffffffffffffff8111156130c2576130c161245c565b5b6130ce8c828d01612fd7565b95505060a08a015167ffffffffffffffff8111156130ef576130ee61245c565b5b6130fb8c828d01612fd7565b94505060c08a015167ffffffffffffffff81111561311c5761311b61245c565b5b6131288c828d01612fd7565b93505060e08a015167ffffffffffffffff8111156131495761314861245c565b5b6131558c828d01612fd7565b9250506101006131678c828d01612f80565b9150509295985092959850929598565b60006020828403121561318d5761318c612457565b5b600082015167ffffffffffffffff8111156131ab576131aa61245c565b5b6131b784828501612fd7565b91505092915050565b7f4552433732313a20696e76616c696420746f6b656e2049440000000000000000600082015250565b60006131f6601883612527565b9150613201826131c0565b602082019050919050565b60006020820190508181036000830152613225816131e9565b9050919050565b7f4552433732313a2061646472657373207a65726f206973206e6f74206120766160008201527f6c6964206f776e65720000000000000000000000000000000000000000000000602082015250565b6000613288602983612527565b91506132938261322c565b604082019050919050565b600060208201905081810360008301526132b78161327b565b9050919050565b600081905092915050565b60006132d48261251c565b6132de81856132be565b93506132ee818560208601612538565b80840191505092915050565b600061330682856132c9565b915061331282846132c9565b91508190509392505050565b7f4552433732313a207472616e736665722066726f6d20696e636f72726563742060008201527f6f776e6572000000000000000000000000000000000000000000000000000000602082015250565b600061337a602583612527565b91506133858261331e565b604082019050919050565b600060208201905081810360008301526133a98161336d565b9050919050565b7f4552433732313a207472616e7366657220746f20746865207a65726f2061646460008201527f7265737300000000000000000000000000000000000000000000000000000000602082015250565b600061340c602483612527565b9150613417826133b0565b604082019050919050565b6000602082019050818103600083015261343b816133ff565b9050919050565b7f4e487b7100000000000000000000000000000000000000000000000000000000600052601160045260246000fd5b600061347c826125ce565b9150613487836125ce565b925082820390508181111561349f5761349e613442565b5b92915050565b60006134b0826125ce565b91506134bb836125ce565b92508282019050808211156134d3576134d2613442565b5b92915050565b60008190508160005260206000209050919050565b60006020601f8301049050919050565b600082821b905092915050565b60006008830261353b7fffffffffffffffffffffffffffffffffffffffffffffffffffffffffffffffff826134fe565b61354586836134fe565b95508019841693508086168417925050509392505050565b6000819050919050565b600061358261357d613578846125ce565b61355d565b6125ce565b9050919050565b6000819050919050565b61359c83613567565b6135b06135a882613589565b84845461350b565b825550505050565b600090565b6135c56135b8565b6135d0818484613593565b505050565b5b818110156135f4576135e96000826135bd565b6001810190506135d6565b5050565b601f8211156136395761360a816134d9565b613613846134ee565b81016020851015613622578190505b61363661362e856134ee565b8301826135d5565b50505b505050565b600082821c905092915050565b600061365c6000198460080261363e565b1980831691505092915050565b6000613675838361364b565b9150826002028217905092915050565b61368e8261251c565b67ffffffffffffffff8111156136a7576136a6612756565b5b6136b18254612d6a565b6136bc8282856135f8565b600060209050601f8311600181146136ef57600084156136dd578287015190505b6136e78582613669565b86555061374f565b601f1984166136fd866134d9565b60005b8281101561372557848901518255600182019150602085019450602081019050613700565b86831015613742578489015161373e601f89168261364b565b8355505b6001600288020188555050505b505050505050565b7f4552433732313a20617070726f766520746f2063616c6c657200000000000000600082015250565b600061378d601983612527565b915061379882613757565b602082019050919050565b600060208201905081810360008301526137bc81613780565b9050919050565b7f4552433732313a207472616e7366657220746f206e6f6e20455243373231526560008201527f63656976657220696d706c656d656e7465720000000000000000000000000000602082015250565b600061381f603283612527565b915061382a826137c3565b604082019050919050565b6000602082019050818103600083015261384e81613812565b9050919050565b7f4552433732313a206d696e7420746f20746865207a65726f2061646472657373600082015250565b600061388b602083612527565b915061389682613855565b602082019050919050565b600060208201905081810360008301526138ba8161387e565b9050919050565b7f4552433732313a20746f6b656e20616c7265616479206d696e74656400000000600082015250565b60006138f7601c83612527565b9150613902826138c1565b602082019050919050565b60006020820190508181036000830152613926816138ea565b9050919050565b7f45524337323155524953746f726167653a2055524920736574206f66206e6f6e60008201527f6578697374656e7420746f6b656e000000000000000000000000000000000000602082015250565b6000613989602e83612527565b91506139948261392d565b604082019050919050565b600060208201905081810360008301526139b88161397c565b9050919050565b7f4f776e6572206d7573742062652076616c696400000000000000000000000000600082015250565b60006139f5601383612527565b9150613a00826139bf565b602082019050919050565b60006020820190508181036000830152613a24816139e8565b9050919050565b600081519050919050565b600082825260208201905092915050565b6000613a5282613a2b565b613a5c8185613a36565b9350613a6c818560208601612538565b613a7581612562565b840191505092915050565b6000608082019050613a956000830187612663565b613aa26020830186612663565b613aaf60408301856129cb565b8181036060830152613ac18184613a47565b905095945050505050565b600081519050613adb8161248d565b92915050565b600060208284031215613af757613af6612457565b5b6000613b0584828501613acc565b91505092915050565b6000613b19826125ce565b91507fffffffffffffffffffffffffffffffffffffffffffffffffffffffffffffffff8203613b4b57613b4a613442565b5b600182019050919050565b7f4e487b7100000000000000000000000000000000000000000000000000000000600052601260045260246000fd5b6000613b90826125ce565b9150613b9b836125ce565b925082613bab57613baa613b56565b5b828204905092915050565b6000613bc1826125ce565b9150613bcc836125ce565b925082613bdc57613bdb613b56565b5b82820690509291505056fea264697066735822122082384b50a27a9100a5c834e32b6e32912e629514268495154627f20a31917e7e64736f6c63430008110033",
  "immutableReferences": {},
  "source": "// SPDX-License-Identifier: Unlicense\npragma solidity ^0.8.0;\n\nimport \"./EightTrigramBase.sol\";\n\ncontract EightTrgramCore is EightTrigramBase {\n    constructor() EightTrigramBase(\"EightTrigramBreedable\", \"ETB\") {\n        setDeployer(msg.sender);\n    }\n\n    function getOwnerCollectionByIndex(address _owner, uint256 _index)\n        external\n        view\n        returns (\n            uint256 fatherTokenId,\n            uint256 motherTokenId,\n            string memory tokenUri,\n            string memory upperTrigramGene,\n            string memory lowerTrigramGene,\n            string memory colorFrom,\n            string memory colorTo,\n            string memory zodiacName,\n            uint256 tokenId\n        )\n    {\n        uint256 _tokenId = ownersTokenIds[_owner][_index];\n        return this.getByTokenId(_tokenId);\n    }\n\n    function getByTokenId(uint256 _tokenId)\n        external\n        view\n        virtual\n        returns (\n            uint256 fatherTokenId,\n            uint256 motherTokenId,\n            string memory tokenUri,\n            string memory upperTrigramGene,\n            string memory lowerTrigramGene,\n            string memory colorFrom,\n            string memory colorTo,\n            string memory zodiacName,\n            uint256 tokenId\n        )\n    {\n        fatherTokenId = eigthTrigramNFTs[_tokenId].fatherTokenId;\n        motherTokenId = eigthTrigramNFTs[_tokenId].motherTokenId;\n        tokenUri = this.tokenURI(_tokenId);\n        upperTrigramGene = eigthTrigramNFTs[_tokenId].upperTrigramGene;\n        lowerTrigramGene = eigthTrigramNFTs[_tokenId].lowerTrigramGene;\n        colorFrom = eigthTrigramNFTs[_tokenId].colorFrom;\n        colorTo = eigthTrigramNFTs[_tokenId].colorTo;\n        zodiacName = eigthTrigramNFTs[_tokenId].zodiacName;\n        tokenId = _tokenId;\n    }\n}\n",
  "sourcePath": "/Users/zhangbiying/person/web3/contracts/EightTrigramCore.sol",
  "compiler": {
    "name": "solc",
    "version": "0.8.17+commit.8df45f5f.Emscripten.clang"
  },
  "schemaVersion": "3.4.10",
  "updatedAt": "2022-10-22T11:52:48.334Z",
  "networkType": "ethereum",
  "devdoc": {
    "kind": "dev",
    "methods": {
      "approve(address,uint256)": {
        "details": "See {IERC721-approve}."
      },
      "balanceOf(address)": {
        "details": "See {IERC721-balanceOf}."
      },
      "getApproved(uint256)": {
        "details": "See {IERC721-getApproved}."
      },
      "isApprovedForAll(address,address)": {
        "details": "See {IERC721-isApprovedForAll}."
      },
      "name()": {
        "details": "See {IERC721Metadata-name}."
      },
      "ownerOf(uint256)": {
        "details": "See {IERC721-ownerOf}."
      },
      "safeTransferFrom(address,address,uint256)": {
        "details": "See {IERC721-safeTransferFrom}."
      },
      "safeTransferFrom(address,address,uint256,bytes)": {
        "details": "See {IERC721-safeTransferFrom}."
      },
      "setApprovalForAll(address,bool)": {
        "details": "See {IERC721-setApprovalForAll}."
      },
      "supportsInterface(bytes4)": {
        "details": "See {IERC165-supportsInterface}."
      },
      "symbol()": {
        "details": "See {IERC721Metadata-symbol}."
      },
      "tokenURI(uint256)": {
        "details": "See {IERC721Metadata-tokenURI}."
      },
      "transferFrom(address,address,uint256)": {
        "details": "See {IERC721-transferFrom}."
      }
    },
    "version": 1
  },
  "userdoc": {
    "kind": "user",
    "methods": {
      "mintGene0(address,string,string,string,string,string,string)": {
        "notice": "mint gene0 NFT only mintable for deployer"
      }
    },
    "version": 1
  }
}