{
  "contractName": "EightTrgramCore",
  "abi": [
    {
      "inputs": [],
      "stateMutability": "nonpayable",
      "type": "constructor"
    },
    {
      "anonymous": false,
      "inputs": [
        {
          "indexed": true,
          "internalType": "address",
          "name": "owner",
          "type": "address"
        },
        {
          "indexed": true,
          "internalType": "address",
          "name": "approved",
          "type": "address"
        },
        {
          "indexed": true,
          "internalType": "uint256",
          "name": "tokenId",
          "type": "uint256"
        }
      ],
      "name": "Approval",
      "type": "event"
    },
    {
      "anonymous": false,
      "inputs": [
        {
          "indexed": true,
          "internalType": "address",
          "name": "owner",
          "type": "address"
        },
        {
          "indexed": true,
          "internalType": "address",
          "name": "operator",
          "type": "address"
        },
        {
          "indexed": false,
          "internalType": "bool",
          "name": "approved",
          "type": "bool"
        }
      ],
      "name": "ApprovalForAll",
      "type": "event"
    },
    {
      "anonymous": false,
      "inputs": [
        {
          "indexed": true,
          "internalType": "address",
          "name": "from",
          "type": "address"
        },
        {
          "indexed": true,
          "internalType": "address",
          "name": "to",
          "type": "address"
        },
        {
          "indexed": true,
          "internalType": "uint256",
          "name": "tokenId",
          "type": "uint256"
        }
      ],
      "name": "Transfer",
      "type": "event"
    },
    {
      "inputs": [
        {
          "internalType": "address",
          "name": "to",
          "type": "address"
        },
        {
          "internalType": "uint256",
          "name": "tokenId",
          "type": "uint256"
        }
      ],
      "name": "approve",
      "outputs": [],
      "stateMutability": "nonpayable",
      "type": "function"
    },
    {
      "inputs": [
        {
          "internalType": "address",
          "name": "owner",
          "type": "address"
        }
      ],
      "name": "balanceOf",
      "outputs": [
        {
          "internalType": "uint256",
          "name": "",
          "type": "uint256"
        }
      ],
      "stateMutability": "view",
      "type": "function",
      "constant": true
    },
    {
      "inputs": [],
      "name": "counter",
      "outputs": [
        {
          "internalType": "uint256",
          "name": "_value",
          "type": "uint256"
        }
      ],
      "stateMutability": "view",
      "type": "function",
      "constant": true
    },
    {
      "inputs": [],
      "name": "deployer",
      "outputs": [
        {
          "internalType": "address",
          "name": "",
          "type": "address"
        }
      ],
      "stateMutability": "view",
      "type": "function",
      "constant": true
    },
    {
      "inputs": [
        {
          "internalType": "uint256",
          "name": "",
          "type": "uint256"
        }
      ],
      "name": "eigthTrigramNFTs",
      "outputs": [
        {
          "internalType": "string",
          "name": "upperTrigramGene",
          "type": "string"
        },
        {
          "internalType": "string",
          "name": "lowerTrigramGene",
          "type": "string"
        },
        {
          "internalType": "string",
          "name": "colorFrom",
          "type": "string"
        },
        {
          "internalType": "string",
          "name": "colorTo",
          "type": "string"
        },
        {
          "internalType": "string",
          "name": "zodiacName",
          "type": "string"
        },
        {
          "internalType": "uint256",
          "name": "fatherTokenId",
          "type": "uint256"
        },
        {
          "internalType": "uint256",
          "name": "motherTokenId",
          "type": "uint256"
        }
      ],
      "stateMutability": "view",
      "type": "function",
      "constant": true
    },
    {
      "inputs": [
        {
          "internalType": "uint256",
          "name": "tokenId",
          "type": "uint256"
        }
      ],
      "name": "getApproved",
      "outputs": [
        {
          "internalType": "address",
          "name": "",
          "type": "address"
        }
      ],
      "stateMutability": "view",
      "type": "function",
      "constant": true
    },
    {
      "inputs": [
        {
          "internalType": "address",
          "name": "owner",
          "type": "address"
        },
        {
          "internalType": "address",
          "name": "operator",
          "type": "address"
        }
      ],
      "name": "isApprovedForAll",
      "outputs": [
        {
          "internalType": "bool",
          "name": "",
          "type": "bool"
        }
      ],
      "stateMutability": "view",
      "type": "function",
      "constant": true
    },
    {
      "inputs": [
        {
          "internalType": "address",
          "name": "user",
          "type": "address"
        },
        {
          "internalType": "uint256",
          "name": "tokenId",
          "type": "uint256"
        }
      ],
      "name": "isApprovedOrOwner",
      "outputs": [
        {
          "internalType": "bool",
          "name": "",
          "type": "bool"
        }
      ],
      "stateMutability": "view",
      "type": "function",
      "constant": true
    },
    {
      "inputs": [
        {
          "internalType": "string",
          "name": "_tokenUri",
          "type": "string"
        },
        {
          "internalType": "string",
          "name": "_upperTrigramGene",
          "type": "string"
        },
        {
          "internalType": "string",
          "name": "_lowerTrigramGene",
          "type": "string"
        },
        {
          "internalType": "string",
          "name": "_colorFrom",
          "type": "string"
        },
        {
          "internalType": "string",
          "name": "_colorTo",
          "type": "string"
        },
        {
          "internalType": "string",
          "name": "_zodiacName",
          "type": "string"
        }
      ],
      "name": "mintGene0",
      "outputs": [],
      "stateMutability": "nonpayable",
      "type": "function"
    },
    {
      "inputs": [
        {
          "internalType": "uint256",
          "name": "fatherTokenId",
          "type": "uint256"
        },
        {
          "internalType": "uint256",
          "name": "motherTokenId",
          "type": "uint256"
        },
        {
          "internalType": "string",
          "name": "_tokenUri",
          "type": "string"
        },
        {
          "internalType": "string",
          "name": "_upperTrigramGene",
          "type": "string"
        },
        {
          "internalType": "string",
          "name": "_lowerTrigramGene",
          "type": "string"
        },
        {
          "internalType": "string",
          "name": "_colorFrom",
          "type": "string"
        },
        {
          "internalType": "string",
          "name": "_colorTo",
          "type": "string"
        },
        {
          "internalType": "string",
          "name": "_zodiacName",
          "type": "string"
        }
      ],
      "name": "mintGeneN",
      "outputs": [],
      "stateMutability": "nonpayable",
      "type": "function"
    },
    {
      "inputs": [],
      "name": "name",
      "outputs": [
        {
          "internalType": "string",
          "name": "",
          "type": "string"
        }
      ],
      "stateMutability": "view",
      "type": "function",
      "constant": true
    },
    {
      "inputs": [
        {
          "internalType": "uint256",
          "name": "tokenId",
          "type": "uint256"
        }
      ],
      "name": "ownerOf",
      "outputs": [
        {
          "internalType": "address",
          "name": "",
          "type": "address"
        }
      ],
      "stateMutability": "view",
      "type": "function",
      "constant": true
    },
    {
      "inputs": [
        {
          "internalType": "address",
          "name": "",
          "type": "address"
        },
        {
          "internalType": "uint256",
          "name": "",
          "type": "uint256"
        }
      ],
      "name": "ownersTokenIds",
      "outputs": [
        {
          "internalType": "uint256",
          "name": "",
          "type": "uint256"
        }
      ],
      "stateMutability": "view",
      "type": "function",
      "constant": true
    },
    {
      "inputs": [
        {
          "internalType": "address",
          "name": "from",
          "type": "address"
        },
        {
          "internalType": "address",
          "name": "to",
          "type": "address"
        },
        {
          "internalType": "uint256",
          "name": "tokenId",
          "type": "uint256"
        }
      ],
      "name": "safeTransferFrom",
      "outputs": [],
      "stateMutability": "nonpayable",
      "type": "function"
    },
    {
      "inputs": [
        {
          "internalType": "address",
          "name": "from",
          "type": "address"
        },
        {
          "internalType": "address",
          "name": "to",
          "type": "address"
        },
        {
          "internalType": "uint256",
          "name": "tokenId",
          "type": "uint256"
        },
        {
          "internalType": "bytes",
          "name": "data",
          "type": "bytes"
        }
      ],
      "name": "safeTransferFrom",
      "outputs": [],
      "stateMutability": "nonpayable",
      "type": "function"
    },
    {
      "inputs": [
        {
          "internalType": "address",
          "name": "operator",
          "type": "address"
        },
        {
          "internalType": "bool",
          "name": "approved",
          "type": "bool"
        }
      ],
      "name": "setApprovalForAll",
      "outputs": [],
      "stateMutability": "nonpayable",
      "type": "function"
    },
    {
      "inputs": [
        {
          "internalType": "bytes4",
          "name": "interfaceId",
          "type": "bytes4"
        }
      ],
      "name": "supportsInterface",
      "outputs": [
        {
          "internalType": "bool",
          "name": "",
          "type": "bool"
        }
      ],
      "stateMutability": "view",
      "type": "function",
      "constant": true
    },
    {
      "inputs": [],
      "name": "symbol",
      "outputs": [
        {
          "internalType": "string",
          "name": "",
          "type": "string"
        }
      ],
      "stateMutability": "view",
      "type": "function",
      "constant": true
    },
    {
      "inputs": [
        {
          "internalType": "uint256",
          "name": "",
          "type": "uint256"
        }
      ],
      "name": "tokenIdToOwnerIndex",
      "outputs": [
        {
          "internalType": "uint256",
          "name": "",
          "type": "uint256"
        }
      ],
      "stateMutability": "view",
      "type": "function",
      "constant": true
    },
    {
      "inputs": [
        {
          "internalType": "uint256",
          "name": "tokenId",
          "type": "uint256"
        }
      ],
      "name": "tokenURI",
      "outputs": [
        {
          "internalType": "string",
          "name": "",
          "type": "string"
        }
      ],
      "stateMutability": "view",
      "type": "function",
      "constant": true
    },
    {
      "inputs": [
        {
          "internalType": "address",
          "name": "from",
          "type": "address"
        },
        {
          "internalType": "address",
          "name": "to",
          "type": "address"
        },
        {
          "internalType": "uint256",
          "name": "tokenId",
          "type": "uint256"
        }
      ],
      "name": "transferFrom",
      "outputs": [],
      "stateMutability": "nonpayable",
      "type": "function"
    },
    {
      "inputs": [
        {
          "internalType": "address",
          "name": "_owner",
          "type": "address"
        },
        {
          "internalType": "uint256",
          "name": "_index",
          "type": "uint256"
        }
      ],
      "name": "getOwnerCollectionByIndex",
      "outputs": [
        {
          "internalType": "uint256",
          "name": "fatherTokenId",
          "type": "uint256"
        },
        {
          "internalType": "uint256",
          "name": "motherTokenId",
          "type": "uint256"
        },
        {
          "internalType": "string",
          "name": "tokenUri",
          "type": "string"
        },
        {
          "internalType": "string",
          "name": "upperTrigramGene",
          "type": "string"
        },
        {
          "internalType": "string",
          "name": "lowerTrigramGene",
          "type": "string"
        },
        {
          "internalType": "string",
          "name": "colorFrom",
          "type": "string"
        },
        {
          "internalType": "string",
          "name": "colorTo",
          "type": "string"
        },
        {
          "internalType": "string",
          "name": "zodiacName",
          "type": "string"
        },
        {
          "internalType": "uint256",
          "name": "tokenId",
          "type": "uint256"
        }
      ],
      "stateMutability": "view",
      "type": "function",
      "constant": true
    },
    {
      "inputs": [
        {
          "internalType": "uint256",
          "name": "_tokenId",
          "type": "uint256"
        }
      ],
      "name": "getByTokenId",
      "outputs": [
        {
          "internalType": "uint256",
          "name": "fatherTokenId",
          "type": "uint256"
        },
        {
          "internalType": "uint256",
          "name": "motherTokenId",
          "type": "uint256"
        },
        {
          "internalType": "string",
          "name": "tokenUri",
          "type": "string"
        },
        {
          "internalType": "string",
          "name": "upperTrigramGene",
          "type": "string"
        },
        {
          "internalType": "string",
          "name": "lowerTrigramGene",
          "type": "string"
        },
        {
          "internalType": "string",
          "name": "colorFrom",
          "type": "string"
        },
        {
          "internalType": "string",
          "name": "colorTo",
          "type": "string"
        },
        {
          "internalType": "string",
          "name": "zodiacName",
          "type": "string"
        },
        {
          "internalType": "uint256",
          "name": "tokenId",
          "type": "uint256"
        }
      ],
      "stateMutability": "view",
      "type": "function",
      "constant": true
    }
  ],
  "bytecode": "0x60806040523480156200001157600080fd5b506040518060400160405280601581526020017f45696768745472696772616d427265656461626c6500000000000000000000008152506040518060400160405280600381526020017f4554420000000000000000000000000000000000000000000000000000000000815250818181600090816200009191906200037d565b508060019081620000a391906200037d565b5050505050620000b933620000bf60201b60201c565b62000464565b80600960006101000a81548173ffffffffffffffffffffffffffffffffffffffff021916908373ffffffffffffffffffffffffffffffffffffffff16021790555050565b600081519050919050565b7f4e487b7100000000000000000000000000000000000000000000000000000000600052604160045260246000fd5b7f4e487b7100000000000000000000000000000000000000000000000000000000600052602260045260246000fd5b600060028204905060018216806200018557607f821691505b6020821081036200019b576200019a6200013d565b5b50919050565b60008190508160005260206000209050919050565b60006020601f8301049050919050565b600082821b905092915050565b600060088302620002057fffffffffffffffffffffffffffffffffffffffffffffffffffffffffffffffff82620001c6565b620002118683620001c6565b95508019841693508086168417925050509392505050565b6000819050919050565b6000819050919050565b60006200025e62000258620002528462000229565b62000233565b62000229565b9050919050565b6000819050919050565b6200027a836200023d565b62000292620002898262000265565b848454620001d3565b825550505050565b600090565b620002a96200029a565b620002b68184846200026f565b505050565b5b81811015620002de57620002d26000826200029f565b600181019050620002bc565b5050565b601f8211156200032d57620002f781620001a1565b6200030284620001b6565b8101602085101562000312578190505b6200032a6200032185620001b6565b830182620002bb565b50505b505050565b600082821c905092915050565b6000620003526000198460080262000332565b1980831691505092915050565b60006200036d83836200033f565b9150826002028217905092915050565b620003888262000103565b67ffffffffffffffff811115620003a457620003a36200010e565b5b620003b082546200016c565b620003bd828285620002e2565b600060209050601f831160018114620003f55760008415620003e0578287015190505b620003ec85826200035f565b8655506200045c565b601f1984166200040586620001a1565b60005b828110156200042f5784890151825560018201915060208501945060208101905062000408565b868310156200044f57848901516200044b601f8916826200033f565b8355505b6001600288020188555050505b505050505050565b613da880620004746000396000f3fe608060405234801561001057600080fd5b506004361061014d5760003560e01c80636352211e116100c3578063b88d4fde1161007c578063b88d4fde146103e4578063c87b56dd14610400578063d5f3948814610430578063e834f75f1461044e578063e985e9c514610484578063f1fa9f66146104b45761014d565b80636352211e146102fe57806370a082311461032e5780637783adc61461035e57806395d89b411461038e578063a22cb465146103ac578063ac94294c146103c85761014d565b80633334c9bc116101155780633334c9bc1461020857806342842e0e14610224578063430c208114610240578063504ac573146102705780635715c7c4146102a857806361bc221a146102e05761014d565b806301ffc9a71461015257806306fdde0314610182578063081812fc146101a0578063095ea7b3146101d057806323b872dd146101ec575b600080fd5b61016c600480360381019061016791906124fb565b6104e4565b6040516101799190612543565b60405180910390f35b61018a6105c6565b60405161019791906125ee565b60405180910390f35b6101ba60048036038101906101b59190612646565b610658565b6040516101c791906126b4565b60405180910390f35b6101ea60048036038101906101e591906126fb565b61069e565b005b6102066004803603810190610201919061273b565b6107b5565b005b610222600480360381019061021d91906128c3565b610815565b005b61023e6004803603810190610239919061273b565b610831565b005b61025a600480360381019061025591906126fb565b610851565b6040516102679190612543565b60405180910390f35b61028a600480360381019061028591906126fb565b610865565b60405161029f99989796959493929190612a30565b60405180910390f35b6102c260048036038101906102bd9190612646565b610971565b6040516102d799989796959493929190612a30565b60405180910390f35b6102e8610dd0565b6040516102f59190612ae7565b60405180910390f35b61031860048036038101906103139190612646565b610ddc565b60405161032591906126b4565b60405180910390f35b61034860048036038101906103439190612b02565b610e8d565b6040516103559190612ae7565b60405180910390f35b610378600480360381019061037391906126fb565b610f44565b6040516103859190612ae7565b60405180910390f35b610396610f75565b6040516103a391906125ee565b60405180910390f35b6103c660048036038101906103c19190612b5b565b611007565b005b6103e260048036038101906103dd9190612b9b565b61101d565b005b6103fe60048036038101906103f99190612d71565b611038565b005b61041a60048036038101906104159190612646565b61109a565b60405161042791906125ee565b60405180910390f35b6104386111ac565b60405161044591906126b4565b60405180910390f35b61046860048036038101906104639190612646565b6111d2565b60405161047b9796959493929190612df4565b60405180910390f35b61049e60048036038101906104999190612e86565b6114cc565b6040516104ab9190612543565b60405180910390f35b6104ce60048036038101906104c99190612646565b611560565b6040516104db9190612ae7565b60405180910390f35b60007f80ac58cd000000000000000000000000000000000000000000000000000000007bffffffffffffffffffffffffffffffffffffffffffffffffffffffff1916827bffffffffffffffffffffffffffffffffffffffffffffffffffffffff191614806105af57507f5b5e139f000000000000000000000000000000000000000000000000000000007bffffffffffffffffffffffffffffffffffffffffffffffffffffffff1916827bffffffffffffffffffffffffffffffffffffffffffffffffffffffff1916145b806105bf57506105be82611578565b5b9050919050565b6060600080546105d590612ef5565b80601f016020809104026020016040519081016040528092919081815260200182805461060190612ef5565b801561064e5780601f106106235761010080835404028352916020019161064e565b820191906000526020600020905b81548152906001019060200180831161063157829003601f168201915b5050505050905090565b6000610663826115e2565b6004600083815260200190815260200160002060009054906101000a900473ffffffffffffffffffffffffffffffffffffffff169050919050565b60006106a982610ddc565b90508073ffffffffffffffffffffffffffffffffffffffff168373ffffffffffffffffffffffffffffffffffffffff1603610719576040517f08c379a000000000000000000000000000000000000000000000000000000000815260040161071090612f98565b60405180910390fd5b8073ffffffffffffffffffffffffffffffffffffffff1661073861162d565b73ffffffffffffffffffffffffffffffffffffffff16148061076757506107668161076161162d565b6114cc565b5b6107a6576040517f08c379a000000000000000000000000000000000000000000000000000000000815260040161079d9061302a565b60405180910390fd5b6107b08383611635565b505050565b6107c66107c061162d565b826116ee565b610805576040517f08c379a00000000000000000000000000000000000000000000000000000000081526004016107fc906130bc565b60405180910390fd5b610810838383611783565b505050565b6108268888888888888888336119e9565b505050505050505050565b61084c83838360405180602001604052806000815250611038565b505050565b600061085d83836116ee565b905092915050565b600080606080606080606080600080600a60008d73ffffffffffffffffffffffffffffffffffffffff1673ffffffffffffffffffffffffffffffffffffffff1681526020019081526020016000208b815481106108c5576108c46130dc565b5b906000526020600020015490503073ffffffffffffffffffffffffffffffffffffffff16635715c7c4826040518263ffffffff1660e01b815260040161090b9190612ae7565b600060405180830381865afa158015610928573d6000803e3d6000fd5b505050506040513d6000823e3d601f19601f820116820180604052508101906109519190613190565b995099509950995099509950995099509950509295985092959850929598565b600080606080606080606080600060088a81548110610993576109926130dc565b5b906000526020600020906007020160050154985060088a815481106109bb576109ba6130dc565b5b90600052602060002090600702016006015497503073ffffffffffffffffffffffffffffffffffffffff1663c87b56dd8b6040518263ffffffff1660e01b8152600401610a089190612ae7565b600060405180830381865afa158015610a25573d6000803e3d6000fd5b505050506040513d6000823e3d601f19601f82011682018060405250810190610a4e9190613302565b965060088a81548110610a6457610a636130dc565b5b90600052602060002090600702016000018054610a8090612ef5565b80601f0160208091040260200160405190810160405280929190818152602001828054610aac90612ef5565b8015610af95780601f10610ace57610100808354040283529160200191610af9565b820191906000526020600020905b815481529060010190602001808311610adc57829003601f168201915b5050505050955060088a81548110610b1457610b136130dc565b5b90600052602060002090600702016001018054610b3090612ef5565b80601f0160208091040260200160405190810160405280929190818152602001828054610b5c90612ef5565b8015610ba95780601f10610b7e57610100808354040283529160200191610ba9565b820191906000526020600020905b815481529060010190602001808311610b8c57829003601f168201915b5050505050945060088a81548110610bc457610bc36130dc565b5b90600052602060002090600702016002018054610be090612ef5565b80601f0160208091040260200160405190810160405280929190818152602001828054610c0c90612ef5565b8015610c595780601f10610c2e57610100808354040283529160200191610c59565b820191906000526020600020905b815481529060010190602001808311610c3c57829003601f168201915b5050505050935060088a81548110610c7457610c736130dc565b5b90600052602060002090600702016003018054610c9090612ef5565b80601f0160208091040260200160405190810160405280929190818152602001828054610cbc90612ef5565b8015610d095780601f10610cde57610100808354040283529160200191610d09565b820191906000526020600020905b815481529060010190602001808311610cec57829003601f168201915b5050505050925060088a81548110610d2457610d236130dc565b5b90600052602060002090600702016004018054610d4090612ef5565b80601f0160208091040260200160405190810160405280929190818152602001828054610d6c90612ef5565b8015610db95780601f10610d8e57610100808354040283529160200191610db9565b820191906000526020600020905b815481529060010190602001808311610d9c57829003601f168201915b505050505091508990509193959799909294969850565b60078060000154905081565b6000806002600084815260200190815260200160002060009054906101000a900473ffffffffffffffffffffffffffffffffffffffff169050600073ffffffffffffffffffffffffffffffffffffffff168173ffffffffffffffffffffffffffffffffffffffff1603610e84576040517f08c379a0000000000000000000000000000000000000000000000000000000008152600401610e7b90613397565b60405180910390fd5b80915050919050565b60008073ffffffffffffffffffffffffffffffffffffffff168273ffffffffffffffffffffffffffffffffffffffff1603610efd576040517f08c379a0000000000000000000000000000000000000000000000000000000008152600401610ef490613429565b60405180910390fd5b600360008373ffffffffffffffffffffffffffffffffffffffff1673ffffffffffffffffffffffffffffffffffffffff168152602001908152602001600020549050919050565b600a6020528160005260406000208181548110610f6057600080fd5b90600052602060002001600091509150505481565b606060018054610f8490612ef5565b80601f0160208091040260200160405190810160405280929190818152602001828054610fb090612ef5565b8015610ffd5780601f10610fd257610100808354040283529160200191610ffd565b820191906000526020600020905b815481529060010190602001808311610fe057829003601f168201915b5050505050905090565b61101961101261162d565b8383611b19565b5050565b61102f600080888888888888336119e9565b50505050505050565b61104961104361162d565b836116ee565b611088576040517f08c379a000000000000000000000000000000000000000000000000000000000815260040161107f906130bc565b60405180910390fd5b61109484848484611c85565b50505050565b60606110a5826115e2565b60006006600084815260200190815260200160002080546110c590612ef5565b80601f01602080910402602001604051908101604052809291908181526020018280546110f190612ef5565b801561113e5780601f106111135761010080835404028352916020019161113e565b820191906000526020600020905b81548152906001019060200180831161112157829003601f168201915b50505050509050600061114f611ce1565b905060008151036111645781925050506111a7565b600082511115611199578082604051602001611181929190613485565b604051602081830303815290604052925050506111a7565b6111a284611cf8565b925050505b919050565b600960009054906101000a900473ffffffffffffffffffffffffffffffffffffffff1681565b600881815481106111e257600080fd5b906000526020600020906007020160009150905080600001805461120590612ef5565b80601f016020809104026020016040519081016040528092919081815260200182805461123190612ef5565b801561127e5780601f106112535761010080835404028352916020019161127e565b820191906000526020600020905b81548152906001019060200180831161126157829003601f168201915b50505050509080600101805461129390612ef5565b80601f01602080910402602001604051908101604052809291908181526020018280546112bf90612ef5565b801561130c5780601f106112e15761010080835404028352916020019161130c565b820191906000526020600020905b8154815290600101906020018083116112ef57829003601f168201915b50505050509080600201805461132190612ef5565b80601f016020809104026020016040519081016040528092919081815260200182805461134d90612ef5565b801561139a5780601f1061136f5761010080835404028352916020019161139a565b820191906000526020600020905b81548152906001019060200180831161137d57829003601f168201915b5050505050908060030180546113af90612ef5565b80601f01602080910402602001604051908101604052809291908181526020018280546113db90612ef5565b80156114285780601f106113fd57610100808354040283529160200191611428565b820191906000526020600020905b81548152906001019060200180831161140b57829003601f168201915b50505050509080600401805461143d90612ef5565b80601f016020809104026020016040519081016040528092919081815260200182805461146990612ef5565b80156114b65780601f1061148b576101008083540402835291602001916114b6565b820191906000526020600020905b81548152906001019060200180831161149957829003601f168201915b5050505050908060050154908060060154905087565b6000600560008473ffffffffffffffffffffffffffffffffffffffff1673ffffffffffffffffffffffffffffffffffffffff16815260200190815260200160002060008373ffffffffffffffffffffffffffffffffffffffff1673ffffffffffffffffffffffffffffffffffffffff16815260200190815260200160002060009054906101000a900460ff16905092915050565b600b6020528060005260406000206000915090505481565b60007f01ffc9a7000000000000000000000000000000000000000000000000000000007bffffffffffffffffffffffffffffffffffffffffffffffffffffffff1916827bffffffffffffffffffffffffffffffffffffffffffffffffffffffff1916149050919050565b6115eb81611d60565b61162a576040517f08c379a000000000000000000000000000000000000000000000000000000000815260040161162190613397565b60405180910390fd5b50565b600033905090565b816004600083815260200190815260200160002060006101000a81548173ffffffffffffffffffffffffffffffffffffffff021916908373ffffffffffffffffffffffffffffffffffffffff160217905550808273ffffffffffffffffffffffffffffffffffffffff166116a883610ddc565b73ffffffffffffffffffffffffffffffffffffffff167f8c5be1e5ebec7d5bd14f71427d1e84f3dd0314c0f7b2291e5b200ac8c7c3b92560405160405180910390a45050565b6000806116fa83610ddc565b90508073ffffffffffffffffffffffffffffffffffffffff168473ffffffffffffffffffffffffffffffffffffffff16148061173c575061173b81856114cc565b5b8061177a57508373ffffffffffffffffffffffffffffffffffffffff1661176284610658565b73ffffffffffffffffffffffffffffffffffffffff16145b91505092915050565b8273ffffffffffffffffffffffffffffffffffffffff166117a382610ddc565b73ffffffffffffffffffffffffffffffffffffffff16146117f9576040517f08c379a00000000000000000000000000000000000000000000000000000000081526004016117f09061351b565b60405180910390fd5b600073ffffffffffffffffffffffffffffffffffffffff168273ffffffffffffffffffffffffffffffffffffffff1603611868576040517f08c379a000000000000000000000000000000000000000000000000000000000815260040161185f906135ad565b60405180910390fd5b611873838383611dcc565b61187e600082611635565b6001600360008573ffffffffffffffffffffffffffffffffffffffff1673ffffffffffffffffffffffffffffffffffffffff16815260200190815260200160002060008282546118ce91906135fc565b925050819055506001600360008473ffffffffffffffffffffffffffffffffffffffff1673ffffffffffffffffffffffffffffffffffffffff16815260200190815260200160002060008282546119259190613630565b92505081905550816002600083815260200190815260200160002060006101000a81548173ffffffffffffffffffffffffffffffffffffffff021916908373ffffffffffffffffffffffffffffffffffffffff160217905550808273ffffffffffffffffffffffffffffffffffffffff168473ffffffffffffffffffffffffffffffffffffffff167fddf252ad1be2c89b69c2b068fc378daa952ba7f163c4a11628f55a4df523b3ef60405160405180910390a46119e4838383611dd1565b505050565b6000806119f66007611dd6565b905060006040518060e001604052808a81526020018981526020018881526020018781526020018681526020018d81526020018c8152509050611a398483611de4565b611a43828b611fbd565b611a4d848361202a565b60088190806001815401808255809150506001900390600052602060002090600702016000909190919091506000820151816000019081611a8e9190613810565b506020820151816001019081611aa49190613810565b506040820151816002019081611aba9190613810565b506060820151816003019081611ad09190613810565b506080820151816004019081611ae69190613810565b5060a0820151816005015560c082015181600601555050611b07600761216f565b81925050509998505050505050505050565b8173ffffffffffffffffffffffffffffffffffffffff168373ffffffffffffffffffffffffffffffffffffffff1603611b87576040517f08c379a0000000000000000000000000000000000000000000000000000000008152600401611b7e9061392e565b60405180910390fd5b80600560008573ffffffffffffffffffffffffffffffffffffffff1673ffffffffffffffffffffffffffffffffffffffff16815260200190815260200160002060008473ffffffffffffffffffffffffffffffffffffffff1673ffffffffffffffffffffffffffffffffffffffff16815260200190815260200160002060006101000a81548160ff0219169083151502179055508173ffffffffffffffffffffffffffffffffffffffff168373ffffffffffffffffffffffffffffffffffffffff167f17307eab39ab6107e8899845ad3d59bd9653f200f220920489ca2b5937696c3183604051611c789190612543565b60405180910390a3505050565b611c90848484611783565b611c9c84848484612185565b611cdb576040517f08c379a0000000000000000000000000000000000000000000000000000000008152600401611cd2906139c0565b60405180910390fd5b50505050565b606060405180602001604052806000815250905090565b6060611d03826115e2565b6000611d0d611ce1565b90506000815111611d2d5760405180602001604052806000815250611d58565b80611d378461230c565b604051602001611d48929190613485565b6040516020818303038152906040525b915050919050565b60008073ffffffffffffffffffffffffffffffffffffffff166002600084815260200190815260200160002060009054906101000a900473ffffffffffffffffffffffffffffffffffffffff1673ffffffffffffffffffffffffffffffffffffffff1614159050919050565b505050565b505050565b600081600001549050919050565b600073ffffffffffffffffffffffffffffffffffffffff168273ffffffffffffffffffffffffffffffffffffffff1603611e53576040517f08c379a0000000000000000000000000000000000000000000000000000000008152600401611e4a90613a2c565b60405180910390fd5b611e5c81611d60565b15611e9c576040517f08c379a0000000000000000000000000000000000000000000000000000000008152600401611e9390613a98565b60405180910390fd5b611ea860008383611dcc565b6001600360008473ffffffffffffffffffffffffffffffffffffffff1673ffffffffffffffffffffffffffffffffffffffff1681526020019081526020016000206000828254611ef89190613630565b92505081905550816002600083815260200190815260200160002060006101000a81548173ffffffffffffffffffffffffffffffffffffffff021916908373ffffffffffffffffffffffffffffffffffffffff160217905550808273ffffffffffffffffffffffffffffffffffffffff16600073ffffffffffffffffffffffffffffffffffffffff167fddf252ad1be2c89b69c2b068fc378daa952ba7f163c4a11628f55a4df523b3ef60405160405180910390a4611fb960008383611dd1565b5050565b611fc682611d60565b612005576040517f08c379a0000000000000000000000000000000000000000000000000000000008152600401611ffc90613b2a565b60405180910390fd5b806006600084815260200190815260200160002090816120259190613810565b505050565b600073ffffffffffffffffffffffffffffffffffffffff168273ffffffffffffffffffffffffffffffffffffffff1603612099576040517f08c379a000000000000000000000000000000000000000000000000000000000815260040161209090613b96565b60405180910390fd5b600a60008373ffffffffffffffffffffffffffffffffffffffff1673ffffffffffffffffffffffffffffffffffffffff16815260200190815260200160002081908060018154018082558091505060019003906000526020600020016000909190919091505560006001600a60008573ffffffffffffffffffffffffffffffffffffffff1673ffffffffffffffffffffffffffffffffffffffff1681526020019081526020016000208054905061215091906135fc565b905080600b600084815260200190815260200160002081905550505050565b6001816000016000828254019250508190555050565b60006121a68473ffffffffffffffffffffffffffffffffffffffff1661246c565b156122ff578373ffffffffffffffffffffffffffffffffffffffff1663150b7a026121cf61162d565b8786866040518563ffffffff1660e01b81526004016121f19493929190613c0b565b6020604051808303816000875af192505050801561222d57506040513d601f19601f8201168201806040525081019061222a9190613c6c565b60015b6122af573d806000811461225d576040519150601f19603f3d011682016040523d82523d6000602084013e612262565b606091505b5060008151036122a7576040517f08c379a000000000000000000000000000000000000000000000000000000000815260040161229e906139c0565b60405180910390fd5b805181602001fd5b63150b7a0260e01b7bffffffffffffffffffffffffffffffffffffffffffffffffffffffff1916817bffffffffffffffffffffffffffffffffffffffffffffffffffffffff191614915050612304565b600190505b949350505050565b606060008203612353576040518060400160405280600181526020017f30000000000000000000000000000000000000000000000000000000000000008152509050612467565b600082905060005b6000821461238557808061236e90613c99565b915050600a8261237e9190613d10565b915061235b565b60008167ffffffffffffffff8111156123a1576123a0612798565b5b6040519080825280601f01601f1916602001820160405280156123d35781602001600182028036833780820191505090505b5090505b60008514612460576001826123ec91906135fc565b9150600a856123fb9190613d41565b60306124079190613630565b60f81b81838151811061241d5761241c6130dc565b5b60200101907effffffffffffffffffffffffffffffffffffffffffffffffffffffffffffff1916908160001a905350600a856124599190613d10565b94506123d7565b8093505050505b919050565b6000808273ffffffffffffffffffffffffffffffffffffffff163b119050919050565b6000604051905090565b600080fd5b600080fd5b60007fffffffff0000000000000000000000000000000000000000000000000000000082169050919050565b6124d8816124a3565b81146124e357600080fd5b50565b6000813590506124f5816124cf565b92915050565b60006020828403121561251157612510612499565b5b600061251f848285016124e6565b91505092915050565b60008115159050919050565b61253d81612528565b82525050565b60006020820190506125586000830184612534565b92915050565b600081519050919050565b600082825260208201905092915050565b60005b8381101561259857808201518184015260208101905061257d565b60008484015250505050565b6000601f19601f8301169050919050565b60006125c08261255e565b6125ca8185612569565b93506125da81856020860161257a565b6125e3816125a4565b840191505092915050565b6000602082019050818103600083015261260881846125b5565b905092915050565b6000819050919050565b61262381612610565b811461262e57600080fd5b50565b6000813590506126408161261a565b92915050565b60006020828403121561265c5761265b612499565b5b600061266a84828501612631565b91505092915050565b600073ffffffffffffffffffffffffffffffffffffffff82169050919050565b600061269e82612673565b9050919050565b6126ae81612693565b82525050565b60006020820190506126c960008301846126a5565b92915050565b6126d881612693565b81146126e357600080fd5b50565b6000813590506126f5816126cf565b92915050565b6000806040838503121561271257612711612499565b5b6000612720858286016126e6565b925050602061273185828601612631565b9150509250929050565b60008060006060848603121561275457612753612499565b5b6000612762868287016126e6565b9350506020612773868287016126e6565b925050604061278486828701612631565b9150509250925092565b600080fd5b600080fd5b7f4e487b7100000000000000000000000000000000000000000000000000000000600052604160045260246000fd5b6127d0826125a4565b810181811067ffffffffffffffff821117156127ef576127ee612798565b5b80604052505050565b600061280261248f565b905061280e82826127c7565b919050565b600067ffffffffffffffff82111561282e5761282d612798565b5b612837826125a4565b9050602081019050919050565b82818337600083830152505050565b600061286661286184612813565b6127f8565b90508281526020810184848401111561288257612881612793565b5b61288d848285612844565b509392505050565b600082601f8301126128aa576128a961278e565b5b81356128ba848260208601612853565b91505092915050565b600080600080600080600080610100898b0312156128e4576128e3612499565b5b60006128f28b828c01612631565b98505060206129038b828c01612631565b975050604089013567ffffffffffffffff8111156129245761292361249e565b5b6129308b828c01612895565b965050606089013567ffffffffffffffff8111156129515761295061249e565b5b61295d8b828c01612895565b955050608089013567ffffffffffffffff81111561297e5761297d61249e565b5b61298a8b828c01612895565b94505060a089013567ffffffffffffffff8111156129ab576129aa61249e565b5b6129b78b828c01612895565b93505060c089013567ffffffffffffffff8111156129d8576129d761249e565b5b6129e48b828c01612895565b92505060e089013567ffffffffffffffff811115612a0557612a0461249e565b5b612a118b828c01612895565b9150509295985092959890939650565b612a2a81612610565b82525050565b600061012082019050612a46600083018c612a21565b612a53602083018b612a21565b8181036040830152612a65818a6125b5565b90508181036060830152612a7981896125b5565b90508181036080830152612a8d81886125b5565b905081810360a0830152612aa181876125b5565b905081810360c0830152612ab581866125b5565b905081810360e0830152612ac981856125b5565b9050612ad9610100830184612a21565b9a9950505050505050505050565b6000602082019050612afc6000830184612a21565b92915050565b600060208284031215612b1857612b17612499565b5b6000612b26848285016126e6565b91505092915050565b612b3881612528565b8114612b4357600080fd5b50565b600081359050612b5581612b2f565b92915050565b60008060408385031215612b7257612b71612499565b5b6000612b80858286016126e6565b9250506020612b9185828601612b46565b9150509250929050565b60008060008060008060c08789031215612bb857612bb7612499565b5b600087013567ffffffffffffffff811115612bd657612bd561249e565b5b612be289828a01612895565b965050602087013567ffffffffffffffff811115612c0357612c0261249e565b5b612c0f89828a01612895565b955050604087013567ffffffffffffffff811115612c3057612c2f61249e565b5b612c3c89828a01612895565b945050606087013567ffffffffffffffff811115612c5d57612c5c61249e565b5b612c6989828a01612895565b935050608087013567ffffffffffffffff811115612c8a57612c8961249e565b5b612c9689828a01612895565b92505060a087013567ffffffffffffffff811115612cb757612cb661249e565b5b612cc389828a01612895565b9150509295509295509295565b600067ffffffffffffffff821115612ceb57612cea612798565b5b612cf4826125a4565b9050602081019050919050565b6000612d14612d0f84612cd0565b6127f8565b905082815260208101848484011115612d3057612d2f612793565b5b612d3b848285612844565b509392505050565b600082601f830112612d5857612d5761278e565b5b8135612d68848260208601612d01565b91505092915050565b60008060008060808587031215612d8b57612d8a612499565b5b6000612d99878288016126e6565b9450506020612daa878288016126e6565b9350506040612dbb87828801612631565b925050606085013567ffffffffffffffff811115612ddc57612ddb61249e565b5b612de887828801612d43565b91505092959194509250565b600060e0820190508181036000830152612e0e818a6125b5565b90508181036020830152612e2281896125b5565b90508181036040830152612e3681886125b5565b90508181036060830152612e4a81876125b5565b90508181036080830152612e5e81866125b5565b9050612e6d60a0830185612a21565b612e7a60c0830184612a21565b98975050505050505050565b60008060408385031215612e9d57612e9c612499565b5b6000612eab858286016126e6565b9250506020612ebc858286016126e6565b9150509250929050565b7f4e487b7100000000000000000000000000000000000000000000000000000000600052602260045260246000fd5b60006002820490506001821680612f0d57607f821691505b602082108103612f2057612f1f612ec6565b5b50919050565b7f4552433732313a20617070726f76616c20746f2063757272656e74206f776e6560008201527f7200000000000000000000000000000000000000000000000000000000000000602082015250565b6000612f82602183612569565b9150612f8d82612f26565b604082019050919050565b60006020820190508181036000830152612fb181612f75565b9050919050565b7f4552433732313a20617070726f76652063616c6c6572206973206e6f7420746f60008201527f6b656e206f776e6572206e6f7220617070726f76656420666f7220616c6c0000602082015250565b6000613014603e83612569565b915061301f82612fb8565b604082019050919050565b6000602082019050818103600083015261304381613007565b9050919050565b7f4552433732313a2063616c6c6572206973206e6f7420746f6b656e206f776e6560008201527f72206e6f7220617070726f766564000000000000000000000000000000000000602082015250565b60006130a6602e83612569565b91506130b18261304a565b604082019050919050565b600060208201905081810360008301526130d581613099565b9050919050565b7f4e487b7100000000000000000000000000000000000000000000000000000000600052603260045260246000fd5b60008151905061311a8161261a565b92915050565b600061313361312e84612813565b6127f8565b90508281526020810184848401111561314f5761314e612793565b5b61315a84828561257a565b509392505050565b600082601f8301126131775761317661278e565b5b8151613187848260208601613120565b91505092915050565b60008060008060008060008060006101208a8c0312156131b3576131b2612499565b5b60006131c18c828d0161310b565b99505060206131d28c828d0161310b565b98505060408a015167ffffffffffffffff8111156131f3576131f261249e565b5b6131ff8c828d01613162565b97505060608a015167ffffffffffffffff8111156132205761321f61249e565b5b61322c8c828d01613162565b96505060808a015167ffffffffffffffff81111561324d5761324c61249e565b5b6132598c828d01613162565b95505060a08a015167ffffffffffffffff81111561327a5761327961249e565b5b6132868c828d01613162565b94505060c08a015167ffffffffffffffff8111156132a7576132a661249e565b5b6132b38c828d01613162565b93505060e08a015167ffffffffffffffff8111156132d4576132d361249e565b5b6132e08c828d01613162565b9250506101006132f28c828d0161310b565b9150509295985092959850929598565b60006020828403121561331857613317612499565b5b600082015167ffffffffffffffff8111156133365761333561249e565b5b61334284828501613162565b91505092915050565b7f4552433732313a20696e76616c696420746f6b656e2049440000000000000000600082015250565b6000613381601883612569565b915061338c8261334b565b602082019050919050565b600060208201905081810360008301526133b081613374565b9050919050565b7f4552433732313a2061646472657373207a65726f206973206e6f74206120766160008201527f6c6964206f776e65720000000000000000000000000000000000000000000000602082015250565b6000613413602983612569565b915061341e826133b7565b604082019050919050565b6000602082019050818103600083015261344281613406565b9050919050565b600081905092915050565b600061345f8261255e565b6134698185613449565b935061347981856020860161257a565b80840191505092915050565b60006134918285613454565b915061349d8284613454565b91508190509392505050565b7f4552433732313a207472616e736665722066726f6d20696e636f72726563742060008201527f6f776e6572000000000000000000000000000000000000000000000000000000602082015250565b6000613505602583612569565b9150613510826134a9565b604082019050919050565b60006020820190508181036000830152613534816134f8565b9050919050565b7f4552433732313a207472616e7366657220746f20746865207a65726f2061646460008201527f7265737300000000000000000000000000000000000000000000000000000000602082015250565b6000613597602483612569565b91506135a28261353b565b604082019050919050565b600060208201905081810360008301526135c68161358a565b9050919050565b7f4e487b7100000000000000000000000000000000000000000000000000000000600052601160045260246000fd5b600061360782612610565b915061361283612610565b925082820390508181111561362a576136296135cd565b5b92915050565b600061363b82612610565b915061364683612610565b925082820190508082111561365e5761365d6135cd565b5b92915050565b60008190508160005260206000209050919050565b60006020601f8301049050919050565b600082821b905092915050565b6000600883026136c67fffffffffffffffffffffffffffffffffffffffffffffffffffffffffffffffff82613689565b6136d08683613689565b95508019841693508086168417925050509392505050565b6000819050919050565b600061370d61370861370384612610565b6136e8565b612610565b9050919050565b6000819050919050565b613727836136f2565b61373b61373382613714565b848454613696565b825550505050565b600090565b613750613743565b61375b81848461371e565b505050565b5b8181101561377f57613774600082613748565b600181019050613761565b5050565b601f8211156137c45761379581613664565b61379e84613679565b810160208510156137ad578190505b6137c16137b985613679565b830182613760565b50505b505050565b600082821c905092915050565b60006137e7600019846008026137c9565b1980831691505092915050565b600061380083836137d6565b9150826002028217905092915050565b6138198261255e565b67ffffffffffffffff81111561383257613831612798565b5b61383c8254612ef5565b613847828285613783565b600060209050601f83116001811461387a5760008415613868578287015190505b61387285826137f4565b8655506138da565b601f19841661388886613664565b60005b828110156138b05784890151825560018201915060208501945060208101905061388b565b868310156138cd57848901516138c9601f8916826137d6565b8355505b6001600288020188555050505b505050505050565b7f4552433732313a20617070726f766520746f2063616c6c657200000000000000600082015250565b6000613918601983612569565b9150613923826138e2565b602082019050919050565b600060208201905081810360008301526139478161390b565b9050919050565b7f4552433732313a207472616e7366657220746f206e6f6e20455243373231526560008201527f63656976657220696d706c656d656e7465720000000000000000000000000000602082015250565b60006139aa603283612569565b91506139b58261394e565b604082019050919050565b600060208201905081810360008301526139d98161399d565b9050919050565b7f4552433732313a206d696e7420746f20746865207a65726f2061646472657373600082015250565b6000613a16602083612569565b9150613a21826139e0565b602082019050919050565b60006020820190508181036000830152613a4581613a09565b9050919050565b7f4552433732313a20746f6b656e20616c7265616479206d696e74656400000000600082015250565b6000613a82601c83612569565b9150613a8d82613a4c565b602082019050919050565b60006020820190508181036000830152613ab181613a75565b9050919050565b7f45524337323155524953746f726167653a2055524920736574206f66206e6f6e60008201527f6578697374656e7420746f6b656e000000000000000000000000000000000000602082015250565b6000613b14602e83612569565b9150613b1f82613ab8565b604082019050919050565b60006020820190508181036000830152613b4381613b07565b9050919050565b7f4f776e6572206d7573742062652076616c696400000000000000000000000000600082015250565b6000613b80601383612569565b9150613b8b82613b4a565b602082019050919050565b60006020820190508181036000830152613baf81613b73565b9050919050565b600081519050919050565b600082825260208201905092915050565b6000613bdd82613bb6565b613be78185613bc1565b9350613bf781856020860161257a565b613c00816125a4565b840191505092915050565b6000608082019050613c2060008301876126a5565b613c2d60208301866126a5565b613c3a6040830185612a21565b8181036060830152613c4c8184613bd2565b905095945050505050565b600081519050613c66816124cf565b92915050565b600060208284031215613c8257613c81612499565b5b6000613c9084828501613c57565b91505092915050565b6000613ca482612610565b91507fffffffffffffffffffffffffffffffffffffffffffffffffffffffffffffffff8203613cd657613cd56135cd565b5b600182019050919050565b7f4e487b7100000000000000000000000000000000000000000000000000000000600052601260045260246000fd5b6000613d1b82612610565b9150613d2683612610565b925082613d3657613d35613ce1565b5b828204905092915050565b6000613d4c82612610565b9150613d5783612610565b925082613d6757613d66613ce1565b5b82820690509291505056fea2646970667358221220c76b1f562d7760411dd3e67edcf5e2ac210c360df5fe9c3ec70c858deb4b51b664736f6c63430008110033",
  "immutableReferences": {},
  "source": "// SPDX-License-Identifier: Unlicense\npragma solidity ^0.8.0;\n\nimport \"./EightTrigramBase.sol\";\n\ncontract EightTrgramCore is EightTrigramBase {\n    constructor() EightTrigramBase(\"EightTrigramBreedable\", \"ETB\") {\n        setDeployer(msg.sender);\n    }\n\n    function getOwnerCollectionByIndex(address _owner, uint256 _index)\n        external\n        view\n        returns (\n            uint256 fatherTokenId,\n            uint256 motherTokenId,\n            string memory tokenUri,\n            string memory upperTrigramGene,\n            string memory lowerTrigramGene,\n            string memory colorFrom,\n            string memory colorTo,\n            string memory zodiacName,\n            uint256 tokenId\n        )\n    {\n        uint256 _tokenId = ownersTokenIds[_owner][_index];\n        return this.getByTokenId(_tokenId);\n    }\n\n    function getByTokenId(uint256 _tokenId)\n        external\n        view\n        virtual\n        returns (\n            uint256 fatherTokenId,\n            uint256 motherTokenId,\n            string memory tokenUri,\n            string memory upperTrigramGene,\n            string memory lowerTrigramGene,\n            string memory colorFrom,\n            string memory colorTo,\n            string memory zodiacName,\n            uint256 tokenId\n        )\n    {\n        fatherTokenId = eigthTrigramNFTs[_tokenId].fatherTokenId;\n        motherTokenId = eigthTrigramNFTs[_tokenId].motherTokenId;\n        tokenUri = this.tokenURI(_tokenId);\n        upperTrigramGene = eigthTrigramNFTs[_tokenId].upperTrigramGene;\n        lowerTrigramGene = eigthTrigramNFTs[_tokenId].lowerTrigramGene;\n        colorFrom = eigthTrigramNFTs[_tokenId].colorFrom;\n        colorTo = eigthTrigramNFTs[_tokenId].colorTo;\n        zodiacName = eigthTrigramNFTs[_tokenId].zodiacName;\n        tokenId = _tokenId;\n    }\n}\n",
  "sourcePath": "/Users/zhangbiying/person/web3/contracts/EightTrigramCore.sol",
  "compiler": {
    "name": "solc",
    "version": "0.8.17+commit.8df45f5f.Emscripten.clang"
  },
  "schemaVersion": "3.4.10",
  "updatedAt": "2022-10-23T13:21:39.026Z",
  "networkType": "ethereum",
  "devdoc": {
    "kind": "dev",
    "methods": {
      "approve(address,uint256)": {
        "details": "See {IERC721-approve}."
      },
      "balanceOf(address)": {
        "details": "See {IERC721-balanceOf}."
      },
      "getApproved(uint256)": {
        "details": "See {IERC721-getApproved}."
      },
      "isApprovedForAll(address,address)": {
        "details": "See {IERC721-isApprovedForAll}."
      },
      "name()": {
        "details": "See {IERC721Metadata-name}."
      },
      "ownerOf(uint256)": {
        "details": "See {IERC721-ownerOf}."
      },
      "safeTransferFrom(address,address,uint256)": {
        "details": "See {IERC721-safeTransferFrom}."
      },
      "safeTransferFrom(address,address,uint256,bytes)": {
        "details": "See {IERC721-safeTransferFrom}."
      },
      "setApprovalForAll(address,bool)": {
        "details": "See {IERC721-setApprovalForAll}."
      },
      "supportsInterface(bytes4)": {
        "details": "See {IERC165-supportsInterface}."
      },
      "symbol()": {
        "details": "See {IERC721Metadata-symbol}."
      },
      "tokenURI(uint256)": {
        "details": "See {IERC721Metadata-tokenURI}."
      },
      "transferFrom(address,address,uint256)": {
        "details": "See {IERC721-transferFrom}."
      }
    },
    "version": 1
  },
  "userdoc": {
    "kind": "user",
    "methods": {
      "mintGene0(string,string,string,string,string,string)": {
        "notice": "mint gene0 NFT"
      }
    },
    "version": 1
  }
}